:0C0000003AC0FECFFDCFFCCFFBCFFACF03
:10000C006DC0F8CFF7CFF6CFF5CFF4CFF3CFF2CF5B
:10001C00F1CFF0CFEFCFEECFEDCF6400C800900161
:10002C002003F8FFFCFFFEFFFFFF496E6375626162
:10003C00746F723D20005465726D6F737461743D02
:10004C00200080C001002D4E414E00494E4600005C
:10005C000C00600136000C006C0142000200B10182
:10006C004E000100B50150000000F894EE27ECBBE7
:10007C00F1E0FBBFEBBFE5BF8DE0A2E0BB27ED934A
:10008C008A95E9F780E094E0A0E6ED930197E9F713
:10009C00ECE5F0E085919591009761F0A591B59113
:1000AC0005901590BF01F00105900D920197E1F7B5
:1000BC00FB01F0CFEFE5EDBFE4E0EEBFC0E6D1E031
:1000CC0076C0AA93E881E062E7B98BE18A95F1F7F3
:1000DC00369A349BFECF349AE5B1DAC10A921A9261
:1000EC00FA926A937A938A939A93AA93BA93EA931D
:1000FC00FA93EFB7EA9375D1A8D2A0E065D1A0E648
:10010C00B1E090D1EBE0EA93A0E05ED1E091810107
:10011C00F0918201609183017091840158D5E1E0E6
:10012C00EA93A9E8B1E0B6D1A9E8B1E07BD18DD2D0
:10013C00A1E04AD1ACE6B1E075D1EBE0EA93A1E0E5
:10014C0043D186D244D5E1E0EA93ADE9B1E0A2D146
:10015C00ADE9B1E067D185D2E991EFBFF991E991B1
:10016C00B991A9919991899179916991F990199085
:10017C0009901895EFEFE7BBE0E0E8BBE4BBE5BB0B
:10018C00E2E0E1BBE0E0E2BB0895E0E0EFBDE5E0DA
:10019C00EEBD67D2E0E0E7BDE6BDEBE0EBBDE8EB22
:1001AC00EABDE0E0E9BDE8BDE0E1E9BF0895E0E0CB
:1001BC00E9BFE5BFEAB9E0E2E7B9E3E8E6B9E0E0B8
:1001CC00E0BFE3DFD7DFCCD2A0E13BD1E0E0F0E051
:1001DC004CD23BD2E8E2EA93A1E0A2D07894A0E022
:1001EC00B0E069D0E0938101F093820160938301C8
:1001FC0070938401A0E065DFF0E03AD2DF01CB011F
:10020C00E0E0F0E06CEC70E455D4E0938501F09301
:10021C00860160938701709388011AD22CD209F061
:10022C0008F401C0919A14D2ADECBCEC8CEC9DE3BB
:10023C009CD321D208F49198D2CFFFCF26D21A9317
:10024C008FD2E03011F4E0E0F9C0E981FA81309707
:10025C0069F0A5E5CBD210E01BD2ED91A983BA834E
:10026C00AE2FC4D21F5F1830B8F302C0ACECBED2B4
:10027C00E1E0E4C00AD2C2D4AC81BD810CD211F44D
:10028C00E0E016C0AEEBB2D210E028E731E03F93CD
:10029C002F932F5F3F4FA5D2AF91BF91EC931F5F70
:1002AC001930A8F3E8E7F1E0E0D1A9E0A9D274D4C1
:1002BC00AAD426960895E9D11A93EAD1DBDFE0306F
:1002CC0011F4ECD1BBC0E0917C01E295EF70E695A6
:1002DC00E3701E2FDDD1DFD111F4E0D1AFC0A4E467
:1002EC0085D2E12FA6E2B0E0DED15FD42FD2D0D1FF
:1002FC00C1DFE03011F4D2D1A1C032D2E12FAEE295
:10030C00B0E0D1D14ED4A0917801B0917901EA231B
:10031C00FB23AED1A0E0B0E080E89DE37DD38EC09E
:10032C00AA93AB81BC81B7D111F4E0E031C0E88174
:10033C00E295E07FEE0FEF61E883AEE457D2A9813E
:10034C0055D2AA8153D2A88151D2AB81BC8192DF04
:10035C00E03011F4E0E01CC0A0917B01EA81EA17C7
:10036C0051F4A0917A01E981EA1729F4A0917C015A
:10037C00E881EA1711F0E0E00BC0AB81BC818BD1B6
:10038C0011F4E0E005C0A8E431D2AFE092D1E8D19D
:10039C0025960895AA93E8B3EF70AE2FE881E07F1D
:1003AC00EA2BE8BB88D1C29A86D1C29884D170C09E
:1003BC00AA93A881EFDFE881E295E883A881EADFC0
:1003CC0085E88A95F1F764C0AA93E881F0E0EF54D0
:1003DC00FE4FE081A981AE0FEBDF59804880229659
:1003EC000895A2E0E5DFA3E064D1ACE0E1DFA1E099
:1003FC00DFDFA3E05ED1E0E04E2E5E2E0895AA93DF
:10040C00A881AA3011F0571438F01FD14394A42DB1
:10041C00DBDFA881AA30E1F15394C09AA881C8DF30
:10042C00C09836C032D11A9333D1ED91A983BA83D7
:10043C001E2FE03019F0A12FE2DFF6CF18812396A2
:10044C000895AA93E7B3E06FE7BBBA9AB89AB99A42
:10045C00C298C098C1987880E881E058E093B301C5
:10046C00E881E054E093B401A4E123D128D127D151
:10047C0026D1A0E28FDF88EC90E00197F1F7A8E29B
:10048C0097DFA4E095DFA5E893DFA6E091DFA9DF75
:10049C0021960895FAD02497E0E0E883E983EA8373
:1004AC00EFE3EB83ADD3EB85FC85EF3FAFEFFA07C2
:1004BC0029F40CD1A2E5B0E0BCD078C0EF3FAFE797
:1004CC00FA0729F403D1A3E5B0E0B3D06FC0AC8533
:1004DC00AA2332F4FED0AAD101D105D1EDE2EC93DE
:1004EC00A885A73010F0E6E0E8871885E12F1150B9
:1004FC00E03021F0FFD003D108D1F8CF0BD13CD2A2
:10050C00EDD010E0E0E0F0E060E87FE3FED002D157
:10051C0016D360F0EFD007D1F8D01F5F173228F058
:10052C00D5D0A7E5B0E085D041C0F1CF103021F493
:10053C00DAD0E0E3EC931DC0E12F1150E030C9F0AC
:10054C00D9D0DDD0A0E0B0E080E09FE315D2DF0190
:10055C00CB015FD0DAD0DED0ADD29BD10E2FC3D081
:10056C00E8D0C8D085D058D2EAD03BD3FED1B6D093
:10057C00E3CFE885E030B1F0B6D0EEE2EC93E8855D
:10058C00E150E887EF5F71F0DAD0CDD0A7D0A1D0E1
:10059C0080D10E2FA8D0CDD0D2D06AD022D3E5D125
:1005AC009DD0EDCFAE81BF81E0E0EC932ED32D96A4
:1005BC00089512D37B816A81F981E88177FB770FEB
:1005CC0067FD7160972F9E5781F078F0983190F409
:1005DC00AA27BB27882708948795B795A7959A953E
:1005EC00D1F7EA23FB23682305C0E8947727EE278D
:1005FC00FF2766276F77769508F4606877F9A991DD
:10060C00B99189919991EA17FB076807790797FBCC
:10061C000895E2D2D2D2CDDFD5D211F495D007C055
:10062C00EEF792D0A0E0B0E080E89FE39ED1249654
:10063C0008952BD0E991F991A991B991CD0105902B
:10064C000D920020E1F7FC010895E0E0EA93089593
:10065C00E0918501F091860160918701709188018C
:10066C000895E0E0EDBDECBD0895FA93EA9308958A
:10067C008ED248D10895A0918101B09182018091D0
:10068C008301909184015BD20895BA93AA93089543
:10069C00A981BA810895D2DDE0300895E0E0FCE351
:1006AC006CE176EC0895F0E0EE0FFF1FEA0FFB1FF4
:1006BC000895B0E04BC08DE08A95F1F70895A0E362
:1006CC0069DE88EC90E00197F1F70895EE81FF81E7
:1006DC00CCCFE985FA856B857C850895E987FA8707
:1006EC006B877C870895AE81BF811196AE83BF83E3
:1006FC0011970895AA81BB818C819D810895EDECA1
:10070C00FCEC6CEC7DE388D10895EA83FB836C836D
:10071C007D830895EA81FB816C817D81A985BA85F1
:10072C008B859C850895E0E0F0E060E271E474D183
:10073C000895E02FE05DEC93E02FF0E00895A9859B
:10074C00BA858B859C85089533D20895109639F01F
:10075C0080ED97E00197F1F7A8951197C9F70895E7
:10076C00EE279098889A80EC93E00197F1F788989F
:10077C0085E28A95F1F7809B08958BEC8A95F1F7C9
:10078C00809BE1E08CE093E00197F1F70895889A63
:10079C0085E08A95F1F788988DE18A95F1F7889430
:1007AC0080990894E79585ED8A95F1F70895E8947A
:1007BC00889A85E08A95F1F770FD889883E28A958E
:1007CC00F1F7809903C070FF03C0089570FF08957E
:1007DC0088EC8A95F1F788988DE08A95F1F7689402
:1007EC00089568E0D4DF6A95E9F708957A2F68E0F8
:1007FC00EE27DDDF26F477956A95D9F7E395089512
:10080C00EE27AA2389F08A2F68E1A881B98198E0A4
:10081C00FD917F2F7E27779508F4E627E795F695CF
:10082C009A95B9F78A9599F7229608953097604072
:10083C00704009F070580895552342F4503811F463
:10084C00E0FF04C03196691F791F6BF050E8572701
:10085C0011F45F93CFC05F3F31F0660F000C5795DA
:10086C006795752F08955F9300200AF0CFC0C8C01C
:10087C0050E8192E1522880F991F9527550F87952B
:10088C0050E8072E0522660F771F7527550F6795C1
:10089C000895689401C0E8945F93F2DF703818F003
:1008AC007F3F08F4A7C056E1571BAAF45195583066
:1008BC000EF4593030F0EFEFFFEF6FEF7FE777F981
:1008CC001AC077275523B9F0EE0FFF1F661F771F4D
:1008DC005A95D1F710C07727583028F0EF2FF62F04
:1008EC00672F5850F9CF552331F076956795F795CA
:1008FC00E7955A95D1F700200AF441D15F910895FC
:10090C00689401C0E894309760407040B1F00024C6
:10091C0026F0772312F4009432D1172E7EE11120A9
:10092C0032F07A95EE0FFF1F661F111CF9CFEF2FD7
:10093C00F62F612D5F938ADF5F9108954F93AF017E
:10094C00FD01DA01AB01BC01CA01402D012C142EB2
:10095C004F910895EA0FFB1F681F0895E095F095DD
:10096C006095EF5FFF4F6F4F08955F9381DF903875
:10097C0071F150E8152604C05F937ADF903839F195
:10098C00703821F1572F591B2BF112F4D7DFFACF06
:10099C00583118F0AA27BB278827583028F0AB2FDE
:1009AC00B82F88275850F9CF552329F08695B7953D
:1009BC00A7955A95D9F7502D512572F0CBDF38F405
:1009CC006795F795E795739513F420C0B7DF3EDF75
:1009DC005F910895D8F7FBCFEA1BFB0B680B51F026
:1009EC0010F40094BBDF662392F3EE0FFF1F661F1B
:1009FC007A95CBF7EE27FF27662777275F91089527
:100A0C00EFEFFFEF6FE77FEF5F910895EFEFFFEFF1
:100A1C006FE77FE75F9108955F932ADF703851F39A
:100A2C00903841F301240894791F23F41CF300201F
:100A3C003AF3ECCF0F921F932F933F934F931127C1
:100A4C0022279927689FA0018F9F302D410D591F98
:100A5C006B9F300D411D591F8E9F27D0BF9F25D0F6
:100A6C006A9F23D0BE9F1DD0AF9F1BD0AE9F110D90
:100A7C00291F391F491F591FE32FF42F652F522FA0
:100A8C004F913F912F911F910F9066232AF0550F94
:100A9C00EE1FFF1F661F02C073954BF2CDDE5F91F8
:100AAC000895100D211D391F02C0200D311D491F45
:100ABC00591F08955F93DCDE703821F411200AF47D
:100ACC009FCFA4CF903809F495CF01240894970BAD
:100ADC001BF4D4F30020F3CF792F1F932F933F9364
:100AEC004F9311241127222733274427552790E2AF
:100AFC00AE17BF078607410730F0AE1BBF0B860B46
:100B0C00410B089401C08894551F221F331F111CE0
:100B1C00AA1FBB1F881F441F9A9551F7F901612D1D
:100B2C004F913F912F911F91662332F0550FEE1F7D
:100B3C00FF1F661F7A9543F27FDE5F91089599231C
:100B4C009AF0772342F0971748F029F4AE17BF07B5
:100B5C00860720F031F0989488940895989408941E
:100B6C0008951894889408957723C2F7971798F3EB
:100B7C00A9F7EA17FB07680788F399F3ECCFF09510
:100B8C0060957095E195FF4F6F4F7F4F08956F2FD4
:100B9C00660F660B762F0895EE23E1E009F0EE2741
:100BAC0008950590F491E02D0895A591B4910895C0
:100BBC00E881F9816A817B810895A881B9818A8154
:100BCC009B810895E883F9836A837B8308957A93E4
:100BDC006A93FA93EA9308959A938A93BA93AA9391
:100BEC000895182E862F612D192E972F712D1B2EDF
:100BFC00BF2FF12D1A2EAE2FE12D08953A932A9383
:100C0C001A930A9308953B812A81198108810895CA
:00000001FF
